:020000040800F2
:1000000050490020DD010008E5030008490300080D
:10001000E1030008250200089D050008000000001B
:100020000000000000000000000000004501000882
:100030002902000800000000890100082D050008C1
:10004000F7010008F7010008F7010008F7010008B0
:10005000F7010008F7010008F7010008F7010008A0
:10006000F7010008F7010008F7010008F701000890
:10007000F7010008F7010008F7010008F701000880
:10008000F7010008F7010008F7010008F701000870
:10009000F7010008F7010008F7010008F701000860
:1000A000F7010008F7010008F7010008F701000850
:1000B000F7010008F7010008F7010008F701000840
:1000C000F7010008F7010008F7010008F701000830
:1000D000F7010008F7010008F7010008F701000820
:1000E000F7010008F7010008F7010008F701000810
:1000F000F7010008F7010008F7010008F701000800
:10010000F7010008F7010008F7010008F7010008EF
:10011000F7010008F7010008F7010008F7010008DF
:10012000F7010008F7010008F7010008F7010008CF
:10013000DFF80CD000F064F80048004775060008AE
:1001400050490020224B19680868B0E8F00F80F38E
:100150000988BFF36F8F4FF0000080F311884EF0D5
:100160000D0E70470000000006480068006880F32C
:10017000088862B661B6BFF34F8FBFF36F8F00DFA1
:1001800000BF00BF08ED00E0EFF30980BFF36F8F01
:100190000F4B1A6820E9F00F106008B54FF0BF0050
:1001A00080F31188BFF34F8FBFF36F8F00F0DAFE3B
:1001B0004FF0000080F31188BDE808401968086816
:1001C000B0E8F00F80F30988BFF36F8F704700BF6E
:1001D00024000020EFF305807047000006488047A8
:1001E00006480047FEE7FEE7FEE7FEE7FEE7FEE71C
:1001F000FEE7FEE7FEE7FEE73D05000831010008E7
:10020000064C074D06E0E06840F0010394E8070063
:1002100098471034AC42F6D3FFF78EFF98130008CE
:10022000B813000800BFFEE770472DE9F041024611
:1002300000250026002000230024002791F803C099
:100240000CF00F0591F803C00CF0100CBCF1000F7E
:1002500003D091F802C04CEA050591F800C0BCF14A
:10026000000F31D0146800202BE04FF0010C0CFA85
:1002700000F3B1F800C00CEA03069E4220D18300CF
:100280004FF00F0C0CFA03F7BC4305FA03FC4CEAE1
:10029000040491F803C0BCF1280F06D14FF0010C03
:1002A0000CFA00FCC2F814C00AE091F803C0BCF1DB
:1002B000480F05D14FF0010C0CFA00FCC2F810C039
:1002C000401C0828D1D31460B1F800C0BCF1FF0F66
:1002D00034DD546800202EE000F1080C4FF00108D6
:1002E00008FA0CF3B1F800C00CEA03069E4221D1D3
:1002F00083004FF00F0C0CFA03F7BC4305FA03FC24
:100300004CEA040491F803C0BCF1280F05D100F1B8
:10031000080C08FA0CF8C2F8148091F803C0BCF17C
:10032000480F07D100F1080C4FF0010808FA0CF84B
:10033000C2F81080401C0828CED35460BDE8F0817C
:10034000416170470161704700BFFEE70146490601
:10035000084A926942F00102064B9A61064A5268C5
:1003600022F0E062044B5A601A4652680A435A600F
:1003700070470000001002400000014008B5012154
:100380001C2000F03BF84FF6FF70ADF80000102085
:100390008DF8030003208DF8020069460D48FFF731
:1003A00044FF69460C48FFF740FF69460B48FFF7DA
:1003B0003CFF4FF6FF710748FFF7C2FF4FF6FF7192
:1003C0000548FFF7BDFF4FF6FF710448FFF7B8FF80
:1003D00008BD000000080140000C01400010014071
:1003E00000BFFEE77047000002490143024A116066
:1003F000704700000000FA050CED00E029B1064A44
:1004000092690243044B9A6104E0034A9269824371
:10041000014B9A61704700000010024010B500F0D7
:1004200001F810BD0CB50020019000903348006821
:1004300040F480303149086000BF3048006800F463
:10044000003000900198401C0190009818B9019864
:10045000B0F5A06FF1D12948006800F4003010B168
:100460000120009001E0002000900098012843D175
:100470002348006840F010002149086008460068E1
:1004800020F0030008600846006840F002000860A1
:100490001A4840681949486008464068486008465C
:1004A000406840F4806048600846406820F47C1052
:1004B00048600846406840F4E81048600846006814
:1004C00040F08070086000BF0C48006800F00070C9
:1004D0000028F9D00948406820F003000749486027
:1004E0000846406840F00200486000BF034840688A
:1004F00000F00C000828F9D10CBD000000100240EB
:1005000000200240042808D14FF0E021096941F0A1
:1005100004014FF0E022116107E04FF0E02109698A
:1005200021F004014FF0E0221161704710B500F096
:10053000ADFD012801D000F05FFD10BD10B51348DE
:10054000006840F001001149086008464068104901
:1005500008400E494860084600680E4908400B49AB
:1005600008600846006820F480200860084640685B
:1005700020F4FE0048604FF41F008860FFF74EFF34
:100580004FF000600449086010BD000000100240F8
:100590000000FFF8FFFFF6FE08ED00E000BFFEE7F9
:1005A00002E008C8121F08C1002AFAD1704770473C
:1005B000002001E001C1121F002AFBD1704700009A
:1005C00010B50420FFF79EFF104800681049B0FBEB
:1005D000F1F0104908700D4800680D49B0FBF1F4C6
:1005E0004FF47A70444301200B4908804FF0E0201B
:1005F000006940F002004FF0E021086108464461C4
:10060000006940F00100086110BD000010000020EA
:1006100000127A000C0000200E00002011E04FF4C0
:1006200080710848FFF78EFE4FF4FA7000F0D8FB97
:100630004FF480710348FFF783FE4FF4FA7000F027
:10064000CFFBECE70008014011E04FF400510848EF
:10065000FFF778FE4FF4FA7000F0C2FB4FF4005140
:100660000348FFF76DFE4FF4FA7000F0B9FBECE7BA
:10067000001001401CB54FF44070FFF7B5FEFFF7C6
:100680009FFF0220FFF762FE0120FFF75FFEFFF7EA
:1006900075FE074800210B468022CDE9001005A118
:1006A000074800F0C3FC00F01FFC00201CBD000048
:1006B0000000002073746172745F7461736B0000DA
:1006C0002D0C00082DE9F04105460E462648076826
:1006D00026480068001D00F0DFFA50B92348006882
:1006E00090F82C1001208840214909688143204856
:1006F0000160681CD8B9D6B11E4948681B49096811
:1007000088601A4982680968CA6018490968091D21
:100710008268516015490968091D8160154A1349AD
:1007200009684A6111460968491C11601AE07C1980
:100730000E4800684460BC4207D20C480168091D9D
:100740000D48006800F0CCFA0CE008480168091D6B
:100750000A48006800F0C4FA09480068844201D2DF
:1007600007480460BDE8F081380000202400002024
:100770003C0000203C0100202C000020280000202C
:100780005400002010B5044600F0D0FA2F4800684D
:10079000401C2E4908602E48006840B92C4804606F
:1007A0000846006801280DD100F024F90AE0294824
:1007B000006838B926480068C06AE16A884201D8F2
:1007C0002348046024480068401C2349086094F8CA
:1007D0002C10012088402149096808431F490860FE
:1007E000E16A01EB81011E4A02EB81014868A060C9
:1007F0008268E260211D826851608160E16A01EBDC
:100800008101174A02EB81026261E16A01EB810119
:10081000134A52F82110491CE26A02EB8202104B83
:1008200043F8221000F094FA0A48006868B10848BA
:100830000068C06AE16A884207D24FF080500949D7
:100840000860BFF34F8FBFF36F8F10BD34000020DF
:100850002400002040000020500000203C00002028
:100860008800002004ED00E010B516E000F05EFA0C
:100870000C48C068C468201D00F00EFA0A480068E1
:10088000401E0949086009480068401E0749086081
:1008900000F05EFA204600F00BF8044800680028DB
:1008A000E4D110BD280100203400002030000020D9
:1008B00010B50446206B00F05BFA204600F058FAB1
:1008C00010BD000030B54FF48843174800F007040E
:1008D0002CB1C01D20F00700134C041B1B1B02464B
:1008E000124C22600024114D6C60D018083820F0A2
:1008F00007000F4C206000240D4D2D686C600C4DDE
:100900002D682C601146441A4C60094C24680C6018
:10091000084D4C682C60084D4C682C604FF000442A
:10092000064D2C6030BD0000500100206400002006
:100930006C00002074000020700000208000002067
:1009400000BFFFF791FF064800680128F9D94FF072
:10095000805004490860BFF34F8FBFF36F8FF0E7FB
:100960008800002004ED00E02DE9FF5F80460E4680
:100970009146DDE90E7A109CA9F10100216B01EB93
:10098000800B2BF0070B86B1002507E0715D04F1A9
:1009900034004155705D00B902E06D1C102DF5D397
:1009A00000BF00214320015502E0002084F83400FC
:1009B000052F00D30427E762201D00F08EF904F113
:1009C000180000F08AF92461C7F10500A061646293
:1009D0000020606484F8480041465846039A00F0BD
:1009E00013F92060BAF1000F01D0CAF80040BDE849
:1009F000FF9F000010B5002407E004EB84010F4ABC
:100A000002EB810000F05CF9641C052CF5D30C4866
:100A100000F056F90B4800F053F90B4800F050F97C
:100A20000A4800F04DF90A4800F04AF9044809491B
:100A3000086004480849086010BD000088000020D4
:100A4000EC000020000100201401002028010020FB
:100A50003C010020280000202C00002010B5014699
:100A6000164800E0006803688B42FBD302464368E7
:100A700013448B4204D143684C68234443600146CD
:100A80000A464B6813440468A34211D10C4C036816
:100A90002468A34208D04B680468646823444B6010
:100AA00003681B680B6005E0054B1B680B6001E0E9
:100AB00003680B60884200D0016010BD6400002014
:100AC0006C00002009480068006808B9012000E0B7
:100AD000002020B14FF0FF300549086005E00348D1
:100AE0000068C0680068024908607047280000205C
:100AF0005400002000BFBF2080F31188BFF34F8F48
:100B0000BFF36F8F00BF00BFFEE700002DE9F0418B
:100B100004464FF0000800F01DFA3548006808B997
:100B2000FFF7D0FE33480068204000285BD1B4B105
:100B300004F10800A04212D9083404F0070078B18B
:100B400004F00700C0F108002044A04205D904F0D9
:100B50000700C0F10800044402E0002400E0002483
:100B6000002C40D02448006884423CD8234E3046B4
:100B7000056801E02E462D686868A04202D2286808
:100B80000028F7D11A48006885422CD0306800F15F
:100B90000808286830606868001B102807D92F19DA
:100BA0006868001B78606C603846FFF757FF124991
:100BB00068680968081A1049086008460068104902
:100BC0000968884203D20C4800680D490860094949
:100BD0006868096808436860002028600948006860
:100BE000401C0849086000F029FB4046BDE8F08140
:100BF0006C000020800000207000002064000020B5
:100C00007400002078000020001F4FF08073036004
:100C1000001F21F001030360001F034B0360143821
:100C20000260203870470000F50A00081CB5044631
:100C300000F07CF80D48012100233222CDE900109C
:100C40000BA10E4800F0F2F90D48022100233222D8
:100C5000CDE900100BA10E4800F0E8F90D4800683E
:100C600000F0D8F800F074F81CBD0000040000206B
:100C70006C6564305F7461736B0000001D060008D2
:100C8000080000206C6564315F7461736B000000C4
:100C9000490600080000002001460A69D1E9013038
:100CA0009860D1E9010358605068884201D1886892
:100CB0005060002008611068401E10601068704786
:100CC00000F1080141604FF0FF31816000F108013F
:100CD000C16001610021016070470021016170471E
:100CE00010B502460B685C1C0CB9106907E002F1F4
:100CF000080000E04068446824689C42FAD94468CF
:100D00004C604C68A160886041600A611468641C92
:100D1000146010BD42684A6093688B6093685960A4
:100D20009160086103685B1C0360704700BFBF20CF
:100D300080F31188BFF34F8FBFF36F8F00BF03485D
:100D40000068401C014908607047000084000020D2
:100D500006480068401E054908600846006820B93A
:100D6000002080F3118800BF00BF7047840000207E
:100D700070B506463546FEB1083D2C460F49606801
:100D800009680840C0B12068B0B90C4960680968BA
:100D90008843606000F0DEF809496068096808442B
:100DA000074908602046FFF759FE06480068401CC6
:100DB0000449086000F042FA70BD00008000002085
:100DC000700000207C00002000204FF0E02108612E
:100DD0008861024848610720086170473F19010097
:100DE00070B50446002544B100F0B4F80021204657
:100DF000FFF768FC00F022FA05463DB94FF080503D
:100E000003490860BFF34F8FBFF36F8F70BD0000C1
:100E100004ED00E070B50546FFF788FF15B92948D5
:100E2000006800E028460446201DFFF735FF78B92A
:100E3000E06A00EB8000244951F8200040B994F8A2
:100E40002C10012088402149096881431F48016016
:100E5000A06A18B104F11800FFF71EFF1C480068D3
:100E6000401C1B49086017480068844209D1211DB5
:100E70001848FFF74FFF18480068401C16490860E3
:100E800006E016480068401E14490860FFF71AFE85
:100E9000FFF75EFF0B480068844202D02046FFF750
:100EA00007FD0F48006858B106480068844207D122
:100EB0004FF080500B490860BFF34F8FBFF36F8F27
:100EC00070BD000024000020880000203C000020AD
:100ED00050000020280100203000002034000020B5
:100EE0004000002004ED00E01CB5124800210B4634
:100EF0008022CDE9001010A1114800F097F80446B7
:100F0000012C14D100BFBF2080F31188BFF34F8F95
:100F1000BFF36F8F00BF4FF0FF300A490860012018
:100F20000949086000200949086000F04BF80848AA
:100F300000681CBD5800002049444C4500000000DA
:100F40004109000854000020400000203800002023
:100F50005C00002002480068401C0149086070479E
:100F6000600000201248006818B101201149086093
:100F70001DE000200F4908600F480068B0FA80F0BB
:100F8000C0F11F0101EB81020C4B03EB82004268B0
:100F90005268426000F108024368934202D14268FD
:100FA000526842604268D268054B1A6000BF7047C1
:100FB00060000020480000203C0000208800002045
:100FC0002400002010B50A48006840F47F0008495A
:100FD00008600846006840F07F400860FFF7F4FEB4
:100FE000002004490860FFF7BFF8002010BD000092
:100FF00020ED00E08400002010B500BFBF2080F38A
:101000001188BFF34F8FBFF36F8F00BF00F04EF812
:1010100018B14FF080500449086000BF002080F3F1
:10102000118800BF10BD000004ED00E02DE9FF4F66
:1010300085B0804689461746DDE912ABB800FFF758
:1010400065FD064656B14C20FFF760FD04460CB125
:10105000266304E03046FFF78BFE00E000247CB1FD
:101060000020CDE900ABCDE902403A464946404672
:10107000089BFFF779FC2046FFF784FB012501E080
:101080004FF0FF35284609B0BDE8F08F05490968E3
:1010900009B9012005E00449096809B9022000E006
:1010A0000020704740000020600000202DE9F04142
:1010B00000275748006800287ED156480068451C24
:1010C000544805608DB95448D0F8008053480068F2
:1010D000514908605148C0F8008051480068401CE0
:1010E0004F490860FFF7EEFC00BF4E48006885429C
:1010F00076D300BF48480068006808B9012000E0C6
:10110000002020B14FF0FF304649086067E04248B8
:101110000068C068C4686668B54202D2414806608B
:101120005DE06069D4E902128A60D4E902214A6074
:10113000211D42688A4201D1E1684160002262615A
:101140000168491E0160A06A98B1A06AD4E907123B
:101150008A60D4E907214A6004F1180142688A4292
:1011600001D1216A41600022A2620168491E01602A
:1011700000BF94F82C10012088402B4909680843CF
:1011800029490860E16A01EB8101284A02EB8101EB
:101190004868A0608268E260211D826851608160B9
:1011A000E16A01EB8101214A02EB81026261E16A9D
:1011B00001EB81011D4A00E022E052F82110491C98
:1011C000E26A02EB8202194B43F822101849E06AE6
:1011D0000968C96A88428DD301278BE700E000BF08
:1011E00013480068C06A00EB8000104951F82000E5
:1011F000012800D901270F48006800B1012704E049
:101200000D480068401C0C4908603846BDE8F08174
:101210006000002038000020280000202C00002062
:101220004C000020540000203C00002088000020DA
:1012300024000020480000204400002070B5002455
:101240000026FFF773FD4B480068401E49490860BF
:101250000846006800287DD147480068002879D0FA
:101260005BE04648C068C468A06AD4E907128A6097
:10127000D4E907214A6004F1180142688A4201D189
:10128000216A41600022A2620168491E0160606912
:10129000D4E902128A60D4E902214A60211D426821
:1012A0008A4201D1E1684160002262610168491E01
:1012B000016094F82C1001208840314909680843E6
:1012C0002F490860E16A01EB81012E4A02EB81019E
:1012D0004868A0608268E260211D82685160816078
:1012E000E16A01EB8101274A02EB81026261E16A56
:1012F00001EB8101234A52F82110491CE26A02EBFA
:101300008202204B43F822101F49E06A0968C96A2B
:10131000884202D301201D4908601848006808B9B6
:10132000012000E0002000289BD00CB1FFF7CAFB91
:101330001748056865B100BFFFF7B8FE10B101207E
:10134000124908606D1E002DF6D10020104908607A
:101350000E4800E009E0006838B1012630070D4969
:101360000860BFF34F8FBFF36F8FFFF7F1FC30467C
:1013700070BD000060000020340000201401002037
:101380003C000020880000202400002048000020AD
:101390004400002004ED00E0B81300080000002025
:1013A00088000000A0050008401400088800002004
:1013B000C8480000B0050008000000000000000060
:1013C000000000000000000000A24A04000000002D
:1013D00000000000010203040607080900000000E5
:1013E00000000000000000000000000000000000FD
:1013F00000000000000000000000000000000000ED
:1014000000000000000000000000000000000000DC
:1014100000000000040000000000000000000000C8
:1014200000000000000000000000000000000000BC
:10143000000000000000000000000000AAAAAAAA04
:0400000508000131BD
:00000001FF
